:100000000C942A000C943C000C943C000C943C0092
:100010000C943C000C943C000C943C000C943C0070
:100020000C943C000C943C000C943C000C943C0060
:100030000C943C000C943C000C943C000C943C0050
:100040000C943C000C943C000C943C000C943C0040
:100050000C943C0011241FBECFE5D4E0DEBFCDBF21
:1000600010E0A0E6B0E001C01D92AD36B107E1F7A7
:100070000E94C8040C9495070C9400008FEF8ABB73
:100080001BBA87BB14BA85BB81BB12BA08958C9A80
:100090008D9A1EBC1DBC1CBC1BBC1ABC19BC18BC58
:1000A00082E087BD8AE986BD82EA8FBD8AE18EBD86
:1000B000089589E685BD089589E683BF08951ABA33
:1000C00016B880E487B987E886B980E888B90895CA
:1000D00097B1987F97B997B1982B97B986B1887FD8
:1000E00086B986B18C6486B9349BFECF84B125B1C4
:1000F00030E023703070322F2227280F311DC901C4
:100100000895AC0130E060E971E00CC0FB0131976B
:10011000F1F70197D9F72F5F243019F084EC99E0BB
:10012000F5CF3F5F832F90E08417950714F420E00C
:10013000F5CF0895AF92BF92CF92DF92EF92FF92E8
:100140000F931F93AA2797FDA095BA2FBC01CD014D
:100150000E9405065B016C0120E030E04AE755E4AF
:100160000E94B9067B018C0120E030E040E85FE3AB
:100170000E946B0588231CF461E070E024C0C80174
:10018000B70120E03FEF4FE757E40E94B50618168D
:10019000B4F4C601B50120E030E040E251E40E9431
:1001A000B9060E94D70580E991E005C0FC013197AE
:1001B000F1F76150704061157105C1F707C0C801C2
:1001C000B7010E94D705CB010197F1F71F910F915D
:1001D000FF90EF90DF90CF90BF90AF900895AF92D7
:1001E000BF92CF92DF92EF92FF920F931F93AA27B5
:1001F00097FDA095BA2FBC01CD010E9405065B01B9
:100200006C012BEA3AEA4AEA50E40E94B9067B0103
:100210008C0120E030E040E85FE30E946B0588231A
:1002200014F461E054C0C801B70120E030E04FE7AA
:1002300053E40E94B50618160CF045C0C601B5017E
:1002400020E030E04AE754E40E946F055B016C0156
:1002500020E030E04AE755E40E94B9067B018C01BA
:1002600020E030E040E85FE30E946B0588231CF447
:1002700061E070E024C0C801B70120E03FEF4FE724
:1002800057E40E94B5061816B4F4C601B50120E083
:1002900030E040E251E40E94B9060E94D70580E9AF
:1002A00091E005C0FC013197F1F761507040611594
:1002B0007105C1F70EC0C801B7010E94D705CB0177
:1002C0000197F1F706C0C801B7010E94D7056A95EA
:1002D000F1F71F910F91FF90EF90DF90CF90BF90BB
:1002E000AF900895EF92FF921F93CF93DF931092F8
:1002F0006000C0E0D0E021E0E22EF12C8C2F0E94C3
:100300006800FE01EF59FF4F9081981760F4970144
:100310000C2E02C0220F331F0A94E2F78091600076
:10032000822B809360002196C430D10539F7DF918C
:10033000CF911F91FF90EF9008950F931F93CF934C
:10034000DF93C5E6D0E000E0802F0E94680088833C
:1003500010E0802F0E946800982F8881891708F488
:1003600098831F5F1A30A9F70F5F2196043061F759
:10037000DF91CF911F910F9108950F931F93CF930A
:10038000DF93C9E6D0E000E0802F0E9468008883F8
:1003900010E0802F0E946800982F8881981708F439
:1003A00098831F5F1A30A9F70F5F2196043061F719
:1003B000DF91CF911F910F9108951F93CF93DF93FA
:1003C000C0E0D0E01FEF15BB84E690E00E949A00E9
:1003D00015BA84E690E00E949A002196C530D105B6
:1003E00091F7DF91CF911F9108959BBD8ABD08952C
:1003F00099BD88BD08958CBF089583BD089587B3C6
:10040000807F87BBC69AC59882E08A95F1F722E083
:1004100035E0C79A822F8A95F1F786B38295807F5F
:10042000922F9A95F1F7C798932F9A95F1F7C79A5B
:10043000922F9A95F1F796B3922F9A95F1F7C79864
:10044000932F9A95F1F787FDE4CFC69887B38F6015
:1004500087BB0895282F662311F4C59801C0C59A5B
:1004600082E08A95F1F7C79A88B3922F92959F7090
:10047000807F982B98BB95E0892F8A95F1F7C798D4
:10048000892F8A95F1F7C79A88B32F70807F822BC6
:1004900088BB892F8A95F1F7C7989A95F1F70E9442
:1004A000FF0108951F93182F8CE291E020E931E0BD
:1004B000F9013197F1F70197D9F787B38F6087BBBF
:1004C000BF9ABD9ABE9A88B3807F88BBC798C698EA
:1004D000C59881E08A95F1F7C79AC19A85E0982F6F
:1004E0009A95F1F7C7988A95F1F70E94FF01812F3D
:1004F0008C6060E00E942A0288E260E00E942A028A
:100500001F910895CF93DF93EC0104C061E00E9436
:100510002A02219688818823C9F7DF91CF91089517
:10052000EF92FF920F931F93DF93CF9300D000D0F1
:100530000F92CDB7DEB79C018B01FE01319685E0AD
:10054000DF011D928A95E9F7FE0135960DC0C901BC
:100550006AE070E00E941C078083C9016AE070E0D5
:100560000E941C079B0131972115310581F7BFEFD0
:100570000F3F1B0779F420E030E0AE014F5F5F4F83
:1005800002C02F5F3F4FFA01E20FF31F80818823E3
:10059000C1F304C025E030E0201B310B7E0108943C
:1005A000E11CF11CE20EF31E890109C0F7018191E3
:1005B0007F01805D61E00E942A020F5F1F4F0530BE
:1005C0001105A4F30F900F900F900F900F90CF9103
:1005D000DF911F910F91FF90EF900895883230F4D2
:1005E00061118064806860E00E942A0208950F9380
:1005F0001F938A010E94EE02C8010E9482021F918D
:100600000F910895EF92FF920F931F938A01790142
:100610000E94EE02C801B7010E9490021F910F9143
:10062000FF90EF9008959B01AC0160E472E48FE0CD
:1006300090E00E9451072150304029B930BD86E832
:1006400080BD88E18AB908955F9BFECF8CB1089583
:100650005D9BFECF8CB908958FEF84BB0895A89859
:10066000A998AA9AAB98AC98AD98AE9AAF9808950D
:10067000A898A998AA98AB9AAC98AD98AE98AF9A5A
:100680000895A89AA998AA98AB98AC9AAD98AE98F4
:10069000AF9808950E94410308950E942F03089582
:1006A000A898A99AAA98AB98AC98AD9AAE98AF982A
:1006B0000895A89AA998AA9AAB98AC9AAD98AE9AC0
:1006C000AF980895A898A99AAA98AB9AAC98AD9AB1
:1006D000AE98AF9A0895A89AA998AA98AB9AAC9A9E
:1006E000AD98AE98AF9A0895A898A99AAA9AAB988F
:1006F000AC98AD9AAE9AAF980895A898A998AA9880
:10070000AB98AC98AD98AE98AF980895A89AA99A6E
:10071000AA9AAB9AAC9AAD9AAE9AAF9A089582B360
:100720008F6082BB81B3807F81BB089520B330E0AE
:100730002095309521703070C901089520B330E0C4
:10074000369527952095309521703070C901089510
:1007500020B330E03695279536952795209530952E
:1007600021703070C901089520B330E063E0369500
:1007700027956A95E1F72095309521703070C90171
:10078000089580E090E00E9480078093610081E0FE
:1007900090E00E9480078093620082E090E00E94D7
:1007A00080078093630083E090E00E94800780933D
:1007B000640008956F927F928F929F92AF92BF9242
:1007C000CF92DF92EF92FF920F931F93DF93CF931D
:1007D000CDB7DEB77B018C016DB67EB6CC24DD24AF
:1007E0000DC00894C11CD11C2AE030E040E050E06C
:1007F0000E942F07C901DA01BC01CD016115710505
:100800008105910571F7C601880F991F2DB73EB775
:10081000281B390B0FB6F8943EBF0FBE2DBF8DB607
:100820009EB60894811C911C540118C0C801B701E0
:100830002AE030E040E050E00E942F07F50161938C
:1008400071935F01C801B7012AE030E040E050E059
:100850000E942F07C901DA017C018D01E114F10426
:100860000105110519F7F6013197EE0FFF1FE80D8D
:10087000F91D20E030E008C080815D9BFECF805DE7
:100880008CB92F5F3F4F32972C153D05A9F70FB656
:10089000F8947EBE0FBE6DBECF91DF911F910F9178
:1008A000FF90EF90DF90CF90BF90AF909F908F9090
:1008B0007F906F900895AF92BF92CF92DF92EF92A8
:1008C000FF920F931F93DF93CF93CDB7DEB7FC0159
:1008D000ADB6BEB697FF07C05D9BFECF8DE28CB96B
:1008E000F095E195FF4FCF0100E010E007C00F5FEA
:1008F0001F4F6AE070E00E941C07CB010097B9F718
:10090000C801880F991F2DB73EB7281B390B0FB6AA
:10091000F8943EBF0FBE2DBFCDB6DEB60894C11C05
:10092000D11C76010FC0CF016AE070E00E941C0765
:10093000D7018D939D937D01CF016AE070E00E9405
:100940001C07FB01309779F7F8013197EE0FFF1F75
:10095000EC0DFD1D20E030E008C080815D9BFECFE6
:10096000805D8CB92F5F3F4F329720173107A9F771
:100970000FB6F894BEBE0FBEADBECF91DF911F91F2
:100980000F91FF90EF90DF90CF90BF90AF900895C0
:10099000CF93DF9360E875E280E090E00E9413035C
:1009A0008FEF84BB0E944700CFE8D1E05F9BFECF72
:1009B0008CB1863639F4DBBDCABDD9BDC8BD0E9435
:1009C000590330C0823649F4DBBDCABDD9BDC8BDAC
:1009D0000E9462038CE291E027C0823739F4DBBDCC
:1009E000CABDD9BDC8BD0E9474031CC08C3639F481
:1009F000DBBDCABDD9BDC8BD0E946B0313C0833720
:100A0000F9F0813639F4DBBDCABDD9BDC8BD0E943D
:100A1000410308C0843659F4DBBDCABDD9BDC8BD89
:100A20000E942F0384E690E00E949A00BFCF883C8A
:100A300039F40E94DD0188EC90E00E945B04B6CF9F
:100A40000E947D03B3CFDC010D900020E9F71197E0
:100A5000A81BB90B20E030E009C0FC01E20FF31F36
:100A6000E0815D9BFECFECB92F5F3F4F2A173B071C
:100A7000A0F30895CF93DF9340E050E0FA01EB59E3
:100A8000FF4F9081DA01AF59BF4F292F30E0FA01B3
:100A9000E759FF4F8081281B310937FF03C030958C
:100AA00021953F4F822F8695890F8C934F5F5F4F23
:100AB0004430510519F7C0E0D0E0FE01EF59FF4F77
:100AC000CE0160810E9488072196C430D105A9F724
:100AD000DF91CF910895D4D008F481E008950CD02F
:100AE0000AC102D140F0F9D030F021F45F3F19F093
:100AF000EBC0511134C1EEC00FD198F39923C9F363
:100B00005523B1F3951B550BBB27AA276217730713
:100B1000840738F09F5F5F4F220F331F441FAA1FC7
:100B2000A9F333D00E2E3AF0E0E830D09150504087
:100B3000E695001CCAF729D0FE2F27D0660F771F35
:100B4000881FBB1F261737074807AB07B0E809F017
:100B5000BB0B802DBF01FF2793585F4F2AF09E3FAC
:100B6000510568F0B1C0FBC05F3FECF3983EDCF389
:100B7000869577956795B795F7959F5FC9F7880F25
:100B8000911D9695879597F90895E1E0660F771F77
:100B9000881FBB1F621773078407BA0720F0621B08
:100BA000730B840BBA0BEE1F88F7E0950895BCD049
:100BB00088F09F5790F0B92F9927B751A0F0D1F046
:100BC000660F771F881F991F1AF0BA95C9F712C0D0
:100BD000B13081F0C3D0B1E00895C0C0672F782F45
:100BE0008827B85F39F0B93FCCF38695779567953C
:100BF000B395D9F73EF490958095709561957F4FA8
:100C00008F4F9F4F0895E89409C097FB3EF490954D
:100C10008095709561957F4F8F4F9F4F9923A9F0D5
:100C2000F92F96E9BB279395F69587957795679564
:100C3000B795F111F8CFFAF4BB0F11F460FF1BC0A8
:100C40006F5F7F4F8F4F9F4F16C0882311F096E93B
:100C500011C0772321F09EE8872F762F05C06623E9
:100C600071F096E8862F70E060E02AF09A95660FA2
:100C7000771F881FDAF7880F9695879597F908955B
:100C8000990F0008550FAA0BE0E8FEEF161617069D
:100C9000E807F907C0F012161306E407F50798F005
:100CA000621B730B840B950B39F40A2661F0232B1E
:100CB000242B252B21F408950A2609F4A140A6959A
:100CC0008FEF811D811D089597F99F6780E870E07F
:100CD00060E008959FEF80EC089500240A941616B2
:100CE000170618060906089500240A94121613061A
:100CF000140605060895092E0394000C11F48823A8
:100D000052F0BB0F40F4BF2B11F460FF04C06F5FC3
:100D10007F4F8F4F9F4F089557FD9058440F551F99
:100D200059F05F3F71F04795880F97FB991F61F06D
:100D30009F3F79F087950895121613061406551FE4
:100D4000F2CF4695F1DF08C0161617061806991F50
:100D5000F1CF86957105610508940895E894BB2745
:100D600066277727CB0197F908958ADF08F48FEF7C
:100D700008950BD0C0CFB1DF28F0B6DF18F095236F
:100D800009F0A2CFA7CF1124EACFC6DFA0F3959F29
:100D9000D1F3950F50E0551F629FF001729FBB2762
:100DA000F00DB11D639FAA27F00DB11DAA1F649F0E
:100DB0006627B00DA11D661F829F2227B00DA11DC1
:100DC000621F739FB00DA11D621F839FA00D611D47
:100DD000221F749F3327A00D611D231F849F600D68
:100DE000211D822F762F6A2F11249F5750408AF0A1
:100DF000E1F088234AF0EE0FFF1FBB1F661F771F2D
:100E0000881F91505040A9F79E3F510570F05CCF6C
:100E1000A6CF5F3FECF3983EDCF386957795679518
:100E2000B795F795E7959F5FC1F7FE2B880F911D4A
:100E30009695879597F9089597FB092E07260AD06E
:100E400077FD04D049D006D000201AF47095619542
:100E50007F4F0895F6F7909581959F4F0895A1E2F1
:100E60001A2EAA1BBB1BFD010DC0AA1FBB1FEE1F24
:100E7000FF1FA217B307E407F50720F0A21BB30B6F
:100E8000E40BF50B661F771F881F991F1A9469F7EB
:100E900060957095809590959B01AC01BD01CF0147
:100EA000089597FB092E05260ED057FD04D0D7DFF5
:100EB0000AD0001C38F450954095309521953F4F4D
:100EC0004F4F5F4F0895F6F7909580957095619517
:100ED0007F4F8F4F9F4F0895AA1BBB1B51E107C047
:100EE000AA1FBB1FA617B70710F0A61BB70B881FBA
:100EF000991F5A95A9F780959095BC01CD01089549
:100F0000E199FECF9FBB8EBBE09A99278DB30895E0
:100F1000262FE199FECF9FBB8EBB2DBB0FB6F89459
:0E0F2000E29AE19A0FBE01960895F894FFCF71
:00000001FF
